:020000040800F2
:1000000000500020690700088D01000899010008D0
:100010009F010008A5010008AB01000800000000D6
:10002000000000000000000000000000B101000816
:10003000BD01000800000000C9010008D50100084A
:10004000B1070008B1070008B1070008B1070008B0
:10005000B1070008B1070008B1070008B1070008A0
:10006000B1070008B1070008B1070008B107000890
:10007000B1070008B1070008B1070008B107000880
:10008000B1070008B1070008B1070008B107000870
:10009000B1070008B1070008B1070008B107000860
:1000A000B1070008B1070008B1070008B107000850
:1000B000B1070008B1070008B1070008B107000840
:1000C000B1070008B1070008B1070008B107000830
:1000D000B1070008B1070008B1070008B107000820
:1000E000B1070008B1070008B107000800000000D0
:1000F0000000000000000000000000000000000000
:0C01000000000000000000005FF808F1A3
:10010C0010B5054C237833B9044B13B10448AFF345
:10011C0000800123237010BD0800002000000000A7
:10012C00FC07000808B5034B1BB103490348AFF3A8
:10013C00008008BD000000000C000020FC07000837
:10014C0080B500AF00F052F800F056F94FF40052B1
:10015C0010210A4800F0A6F94FF40051074800F0AE
:10016C0007FA642000F081F94FF40051034800F0C5
:10017C000DFA642000F079F9EEE700BF00100140A1
:10018C0080B400AF00BFBD4680BC704780B400AFE8
:10019C00FEE780B400AFFEE780B400AFFEE780B4AA
:1001AC0000AFFEE780B400AF00BFBD4680BC704717
:1001BC0080B400AF00BFBD4680BC704780B400AFB8
:1001CC0000BFBD4680BC704780B400AF064BD3E97E
:1001DC000023501C43F10001034BC3E9000100BF95
:1001EC00BD4680BC704700BF2800002080B500AF22
:1001FC00154B1B68144A43F001031360124B5A68E9
:10020C001149124B13404B600F4B1B680E4A23F0E5
:10021C00847323F4803313600B4B1B680A4A23F45A
:10022C0080231360084B5B68074A23F4FE0353607A
:10023C00054B4FF41F029A6000F00CF8044B4FF082
:10024C0000629A6000BF80BD001002400000FFF801
:10025C0000ED00E080B500AF00F002F800BF80BDFB
:10026C0080B483B000AF00237B6000233B603A4B2B
:10027C001B68394A43F480331360374B1B6803F413
:10028C0000333B607B6801337B603B68002B03D100
:10029C007B68B3F5A06FF0D12F4B1B6803F40033D0
:1002AC00002B02D001233B6001E000233B603B6844
:1002BC00012B4BD1294B1B68284A43F010031360C8
:1002CC00264B1B68254A23F003031360234B1B6842
:1002DC00224A43F0020313601F4B1F4A5B685360B2
:1002EC001D4B1D4A5B6853601B4B5B681A4A43F4F9
:1002FC0080635360184B5B68174A23F47C1353607C
:10030C00154B5B68144A43F4E8135360124B1B689B
:10031C00114A43F08073136000BF0F4B1B6803F04E
:10032C000073002BF9D00C4B5B680B4A23F00303D2
:10033C005360094B5B68084A43F00203536000BFEB
:10034C00054B5B6803F00C03082BF9D100BF0C378D
:10035C00BD4680BC704700BF001002400020024028
:10036C0080B483B000AF03463960FB7197F9073056
:10037C00002B0ADB3B68DAB20C4997F90730120103
:10038C00D2B20B4483F800230AE03B68DAB2084986
:10039C00FB7903F00F03043B1201D2B20B441A7623
:1003AC0000BF0C37BD4680BC704700BF00E100E0C9
:1003BC0000ED00E080B582B000AF78607B68013B57
:1003CC00B3F1807F01D301230FE00A4A7B68013B24
:1003DC0053600F214FF0FF30FFF7C2FF054B002297
:1003EC009A60044B07221A60002318460837BD4652
:1003FC0080BD00BF10E000E080B500AF08494FF0B1
:10040C0000024FF00003C1E90023064B1B68064AAB
:10041C00A2FB03239B0C1846FFF7CCFF00BF80BD4B
:10042C00280000200000002083DE1B432DE9B04390
:10043C0084B000AF786000F029F8C7E9020100BF72
:10044C0000F024F8D7E90223841A61EB03057B68DA
:10045C00002298469146444575EB0903F0D300BF42
:10046C0000BF1037BD46BDE8B08380B582B000AF89
:10047C000346FB80FB884FF47A7202FB03F31846A9
:10048C00FFF7D4FF00BF0837BD4680BD80B400AF76
:10049C00034BD3E9002310461946BD4680BC704778
:1004AC002800002080B584B000AF78600B46FB704C
:1004BC0013463B807B68274A934204D101210420D8
:1004CC0000F02EF935E07B68234A934204D10121D8
:1004DC00082000F025F92CE07B68204A934204D1D7
:1004EC000121102000F01CF923E07B681C4A934288
:1004FC0004D10121202000F013F91AE07B68194A7D
:10050C00934204D10121402000F00AF911E07B68EC
:10051C00154A934204D10121802000F001F908E032
:10052C007B68124A934204D101214FF4807000F091
:10053C00F7F8FB78FB733B88BB810323BB7307F194
:10054C000C031946786800F02FF800BF1037BD4631
:10055C0080BD00BF00080140000C014000100140AC
:10056C000014014000180140001C01400020014013
:10057C0080B483B000AF78600B467B807A887B6850
:10058C001A6100BF0C37BD4680BC704780B483B085
:10059C0000AF78600B467B807A887B685A6100BF1D
:1005AC000C37BD4680BC704780B489B000AF786012
:1005BC0039600023FB6100233B610023BB610023F6
:1005CC00FB6000237B610023BB603B68DB7803F09E
:1005DC000F03FB613B68DB7803F01003002B05D0A5
:1005EC003B689B781A46FB691343FB613B681B888D
:1005FC00DBB2002B44D07B681B687B610023BB61A2
:10060C0038E00122BB6902FA03F3FB603B681B88EC
:10061C001A46FB6813403B613A69FB689A4226D143
:10062C00BB699B00FB600F22FB6802FA03F3BB6003
:10063C00BB68DB437A6913407B61FA69FB6802FA99
:10064C0003F37A6913437B613B68DB78282B05D174
:10065C000122BB699A407B685A6108E03B68DB78F1
:10066C00482B04D10122BB699A407B681A61BB6993
:10067C000133BB61BB69072BC3D97B687A691A60EC
:10068C003B681B88FF2B46D97B685B687B6100232A
:10069C00BB613AE0BB690833012202FA03F3FB6049
:1006AC003B681B881A46FB6813403B613A69FB6840
:1006BC009A4227D1BB699B00FB600F22FB6802FAB0
:1006CC0003F3BB60BB68DB437A6913407B61FA6957
:1006DC00FB6802FA03F37A6913437B613B68DB78AE
:1006EC00282B05D1BB69083301229A407B685A61DB
:1006FC003B68DB78482B05D1BB69083301229A4053
:10070C007B681A61BB690133BB61BB69072BC1D91B
:10071C007B687A695A6000BF2437BD4680BC70473D
:10072C0080B483B000AF78600B46FB70FB78002B75
:10073C0006D0094B9A6908497B6813438B6106E024
:10074C00054B9A697B68DB43034913408B6100BFFF
:10075C000C37BD4680BC704700100240FFF746FDC9
:10076C000B480C490C4A002302E0D458C450043303
:10077C00C4188C42F9D3094A094C002301E01360D8
:10078C000432A242FBD300F00FF8FFF7D9FC7047FC
:10079C0000000020040000201C08000808000020B5
:1007AC0030000020FEE7000070B500260C4D0D4C0B
:1007BC00641BA410A64209D100F01AF800260A4DB9
:1007CC000A4C641BA410A64205D170BD55F8043B1D
:1007DC0098470136EEE755F8043B98470136F2E7A7
:1007EC001408000814080008140800081808000869
:1007FC00F8B500BFF8BC08BC9E467047F8B500BF02
:08080C00F8BC08BC9E467047D1
:0408140031010008A6
:040818000D010008C6
:04081C0000A24A04E8
:04000005080007697F
:00000001FF
